{
  "_format": "hh-sol-artifact-1",
  "contractName": "AccountFactory",
  "sourceName": "contracts/Account.sol",
  "abi": [
    {
      "inputs": [
        {
          "internalType": "address",
          "name": "owner",
          "type": "address"
        }
      ],
      "name": "createAccount",
      "outputs": [
        {
          "internalType": "address",
          "name": "",
          "type": "address"
        }
      ],
      "stateMutability": "nonpayable",
      "type": "function"
    }
  ],
  "bytecode": "0x6080604052348015600f57600080fd5b5061085c8061001f6000396000f3fe608060405234801561001057600080fd5b506004361061002b5760003560e01c80639859387b14610030575b600080fd5b61004361003e366004610219565b61005f565b6040516001600160a01b03909116815260200160405180910390f35b6040516000906001600160a01b03831690829061007e6020820161020c565b601f1982820381018352601f9091011660408181526001600160a01b03871660208301520160408051601f19818403018152908290526100c19291602001610279565b604051602081830303815290604052905060006100e5838380519060200120610112565b90506001600160a01b0381163b156100ff57949350505050565b6101098383610128565b95945050505050565b600061011f8383306101e2565b90505b92915050565b600081516000036101805760405162461bcd60e51b815260206004820181905260248201527f437265617465323a2062797465636f6465206c656e677468206973207a65726f60448201526064015b60405180910390fd5b828251602084016000f590506001600160a01b0381166101225760405162461bcd60e51b815260206004820152601960248201527f437265617465323a204661696c6564206f6e206465706c6f79000000000000006044820152606401610177565b6000604051836040820152846020820152828152600b8101905060ff815360559020949350505050565b6105908061029783390190565b60006020828403121561022b57600080fd5b81356001600160a01b038116811461024257600080fd5b9392505050565b6000815160005b8181101561026a5760208185018101518683015201610250565b50600093019283525090919050565b600061028e6102888386610249565b84610249565b94935050505056fe6080604052348015600f57600080fd5b50604051610590380380610590833981016040819052602c916050565b600180546001600160a01b0319166001600160a01b0392909216919091179055607e565b600060208284031215606157600080fd5b81516001600160a01b0381168114607757600080fd5b9392505050565b6105038061008d6000396000f3fe608060405234801561001057600080fd5b506004361061004c5760003560e01c806306661abd146100515780633a871cdd1461006d57806361461954146100805780638da5cb5b1461008a575b600080fd5b61005a60005481565b6040519081526020015b60405180910390f35b61005a61007b3660046103f5565b6100b5565b610088610160565b005b60015461009d906001600160a01b031681565b6040516001600160a01b039091168152602001610064565b7f19457468657265756d205369676e6564204d6573736167653a0a3332000000006000908152601c839052603c81208190610132906100f8610140880188610449565b8080601f01602080910402602001604051908101604052809392919081815260200183838082843760009201919091525061017692505050565b6001549091506001600160a01b03808316911614610151576001610154565b60005b60ff1695945050505050565b60008054908061016f83610490565b9190505550565b6000806000610185858561019a565b91509150610192816101df565b509392505050565b60008082516041036101d05760208301516040840151606085015160001a6101c487828585610331565b945094505050506101d8565b506000905060025b9250929050565b60008160048111156101f3576101f36104b7565b036101fb5750565b600181600481111561020f5761020f6104b7565b036102615760405162461bcd60e51b815260206004820152601860248201527f45434453413a20696e76616c6964207369676e6174757265000000000000000060448201526064015b60405180910390fd5b6002816004811115610275576102756104b7565b036102c25760405162461bcd60e51b815260206004820152601f60248201527f45434453413a20696e76616c6964207369676e6174757265206c656e677468006044820152606401610258565b60038160048111156102d6576102d66104b7565b0361032e5760405162461bcd60e51b815260206004820152602260248201527f45434453413a20696e76616c6964207369676e6174757265202773272076616c604482015261756560f01b6064820152608401610258565b50565b6000807f7fffffffffffffffffffffffffffffff5d576e7357a4501ddfe92f46681b20a083111561036857506000905060036103ec565b6040805160008082526020820180845289905260ff881692820192909252606081018690526080810185905260019060a0016020604051602081039080840390855afa1580156103bc573d6000803e3d6000fd5b5050604051601f1901519150506001600160a01b0381166103e5576000600192509250506103ec565b9150600090505b94509492505050565b60008060006060848603121561040a57600080fd5b833567ffffffffffffffff81111561042157600080fd5b8401610160818703121561043457600080fd5b95602085013595506040909401359392505050565b6000808335601e1984360301811261046057600080fd5b83018035915067ffffffffffffffff82111561047b57600080fd5b6020019150368190038213156101d857600080fd5b6000600182016104b057634e487b7160e01b600052601160045260246000fd5b5060010190565b634e487b7160e01b600052602160045260246000fdfea264697066735822122021706374c59a9a3c2d26cdd65b14a15e616649ead54ca8d64d0a842bc9497a1c64736f6c634300081c0033a2646970667358221220f6e2a8855d6b3a8a39e3e9ce2242bd7b23dd811968b11738b06974a1cfd0508a64736f6c634300081c0033",
  "linkReferences": {},
  "deployedLinkReferences": {}
}